S00C0000436F64652E737265639D
S11300000C942A000C943C000C943C000C943C008E
S11300100C943C000C943C000C943C000C943C006C
S11300200C943C000C943C000C943C000C941B0578
S11300300C943C000C943C000C943C000C943C004C
S11300400C943C000C943C000C943C000C943C003C
S11300500C943C0011241FBECFE5D4E0DEBFCDBF1D
S113006020E0A0E6B0E001C01D92A136B207E1F79E
S11300700E9479050C94AF050C94000011B888E433
S113008080B9089594EA96BF06B607FEFDCFEFE166
S1130090FEE43197F1F700C0000083B984E886BF1D
S11300A006B607FEFDCF089584E986BF06B604FCB4
S11300B0FDCF8FE19EE40197F1F700C000000895A1
S11300C083B984E886BF06B607FEFDCF0895CF93B3
S11300D0DF93D62FC42F0E9442008D2F0E94600010
S11300E08C2F0E9460000E9454008FE39CE90197CA
S11300F0F1F700C00000DF91CF910895CF93C62F90
S11301000E944200C3B984E886BF06B607FEFDCF4D
S113011083B1CF9108951ABA84B38F7784BB84B323
S11301208F7B84BB84B38F7D84BB8FEF87BB81B30C
S1130130806881BB14BC81E083BD89E185BD8FE308
S11301409CE90197F1F700C000000E943E008FE394
S11301509CE90197F1F700C0000040E862E182E405
S113016090E00E9467009FEF23EC89E091502040CB
S11301708040E1F700C0000044E06AE382E490E0DC
S11301800E94670040E062E182E490E00E94670020
S113019043E167E182E490E00E94670041E068E1A6
S11301A082E490E00E94670046EB62E382E490E020
S11301B00E94670042E069E182E490E00E946700E7
S11301C04AE76AE182E490E00E9467004AE063E063
S11301D082E490E00E94670040E06CE082E490E0FA
S11301E00E94670040E06EE382E490E00E946700B2
S11301F04AE360E782E490E00E94670045E361E738
S113020082E490E00E94670041E162E782E490E0CA
S11302100E94670040EF63E782E490E00E94670079
S113022041E062EA82E490E00E94670040E065E118
S113023082E490E00E94670040E26AE782E490E092
S11302400E94670040E16BE782E490E00E9467004F
S11302504EE16CE782E490E00E94670045E36DE7BD
S113026082E490E00E9467004AE56EE782E490E051
S11302700E94670049E66FE782E490E00E9467000D
S113028046E760E882E490E00E94670040E861E8A5
S113029082E490E00E94670048E862E882E490E02B
S11302A00E9467004FE863E882E490E00E946700E0
S11302B046E964E882E490E00E94670043EA65E866
S11302C082E490E00E9467004FEA66E882E490E0EE
S11302D00E94670044EC67E882E490E00E946700B3
S11302E047ED68E882E490E00E94670048EE69E820
S11302F082E490E00E94670040EC63E182E490E0D5
S11303000E94670040E060E082E490E00E946700A1
S113031040E060E182E490E00E94670040E46DE028
S113032082E490E00E94670048E164E182E490E0A6
S11303300E94670045E065EA82E490E00E9467005D
S113034047E06BEA82E490E00E94670045E964E2DA
S113035082E490E00E94670043E365E282E490E077
S11303600E94670043EE66E282E490E00E94670028
S113037048E76FE982E490E00E94670048E660EA9B
S113038082E490E00E94670043E061EA82E490E046
S11303900E94670048ED66EA82E490E00E946700EC
S11303A048ED67EA82E490E00E94670040EF68EA63
S11303B082E490E00E94670040E969EA82E490E008
S11303C00E94670044E96AEA82E490E00E946700C0
S11303D045EC63E182E490E00E94670040E060E362
S11303E082E490E00E94670040E061E382E490E0F0
S11303F00E94670041E66EE082E490E00E9467009C
S11304004BE46FE082E490E00E94670042E066E122
S113041082E490E00E94670047E06EE182E490E0AD
S11304200E94670042E061E282E490E00E9467007B
S113043041E962E282E490E00E94670047E069E2F9
S113044082E490E00E9467004BE063E382E490E082
S11304500E9467004BE065E382E490E00E9467003D
S11304604DE167E382E490E00E94670041E768E3BE
S113047082E490E00E9467004AE269E382E490E04B
S11304800E94670048E76CE382E490E00E94670002
S113049040E46DE482E490E00E94670040E26EE490
S11304A082E490E00E94670040E069E682E490E024
S11304B00E94670040E164E782E490E00E946700E4
S11304C04FE46DE882E490E00E94670040E06EE84B
S11304D082E490E00E94670040E06FE882E490E0EC
S11304E00E94670040E060E982E490E00E946700B7
S11304F040E061E982E490E00E94670040E066E940
S113050082E490E00E94670040E06AE982E490E0BF
S11305100E94670044E860EB82E490E00E94670078
S11305204CE061EB82E490E00E9467004EE062EBF5
S113053082E490E00E94670042E863EB82E490E08A
S11305400E9467004AE068EB82E490E00E94670042
S11305504AE063E482E490E00E94670040EF64E4D0
S113056082E490E00E94670044E365E482E490E062
S11305700E94670048E566E482E490E00E94670018
S113058048E267E482E490E00E9467004AE368E49A
S113059082E490E00E94670048E869E582E490E024
S11305A00E94670048E86AE582E490E00E946700E0
S11305B044E46BE582E490E00E94670047E66CE562
S11305C082E490E00E94670049E46DE582E490E0F3
S11305D00E9467004EE06EE582E490E00E946700AE
S11305E04AE06CE682E490E00E94670045E56DE62F
S11305F082E490E00E94670041E16EE682E490E0CC
S11306000E9467004EE96FE682E490E00E94670072
S113061040E46AE682E490E00E94670040E461E01E
S113062082E490E00E94670040E662E082E490E0A9
S11306300E94670047EC63E182E490E00E94670057
S113064040E86FE482E490E00E94670040E860E5DF
S113065082E490E00E94670040E061E582E490E07B
S11306600E94670042E262E582E490E00E94670033
S11306704EE563E582E490E00E94670040E864E5AB
S113068082E490E00E9467004EE968E582E490E02D
S11306900E94670048E061E482E490E00E94670001
S11306A040E06FE382E490E00E94670045E065E784
S11306B082E490E00E94670041EE66E782E490E005
S11306C00E94670040E06CE482E490E00E946700CE
S11306D041E067E782E490E00E94670048E46DE34C
S11306E082E490E00E94670049E06BE482E490E0D9
S11306F00E94670040E669EC82E490E00E94670093
S113070040E466E582E490E00E94670041E164E32E
S113071082E490E00E94670042E16BE382E490E0AF
S11307200E94670042E864EA82E490E00E94670065
S113073040E066E982E490E00E94670040E367E9F4
S113074082E490E00E94670040E268E982E490E07D
S11307500E94670040E369E982E490E00E94670038
S113076044E86AE982E490E00E94670049E26BE9A8
S113077082E490E00E94670043E06CE982E490E048
S11307800E9467004CE46DE982E490E00E946700F7
S11307904FE36EE982E490E00E94670044E068E77A
S11307A082E490E00E94670041E069E782E490E01F
S11307B00E94670040EF68EC82E490E00E946700CA
S11307C04FE069E782E490E00E94670040E068EC53
S11307D082E490E00E94670040E169E782E490E0EF
S11307E00E9467004EE768EC82E490E00E94670094
S11307F04AE069E782E490E00E94670040E868EC20
S113080082E490E00E9467004BE069E782E490E0B4
S11308100E94670041E068EC82E490E00E94670077
S11308204CE069E782E490E00E9467004FE068ECE6
S113083082E490E00E9467004DE069E782E490E082
S11308400E94670040E268EC82E490E00E94670046
S113085049E069E782E490E00E94670040E868ECC0
S113086082E490E00E94670042E069E782E490E05D
S11308700E94670040EC68EC82E490E00E9467000C
S113088043E069E782E490E00E94670040E468EC9A
S113089082E490E00E94670045E069E782E490E02A
S11308A00E94670040E368EC82E490E00E946700E5
S11308B046E269E782E490E00E94670044E06CE06D
S11308C082E490E00E9467004AE16EE382E490E0F3
S11308D00E94670042E262E782E490E00E946700BF
S11308E042EF63E782E490E00E94670046E167E13B
S11308F082E490E00E94670044E068E182E490E0D2
S11309000E94670044EA62E382E490E00E94670088
S113091042E069E182E490E00E9467004AE76AE10C
S113092082E490E00E9467004AE063E082E490E0A1
S11309300E94670044E062E182E490E00E94670064
S113094040E06CE882E490E00E94670040E064E0EC
S113095082E490E00E94670040ED60E482E490E06D
S11309600E9467004AE664E182E490E00E94670026
S113097043EB6FE482E490E00E94670043EB60E5A0
S113098082E490E00E94670040E061E582E490E048
S11309900E9467004DE362E582E490E00E946700F4
S11309A047EA63E582E490E00E94670044EE64E570
S11309B082E490E00E94670040E46DE382E490E00A
S11309C00E94670065E183E40E947E00482F406234
S11309D065E182E490E00E9467006FE083E40E9496
S11309E07E00482F40686FE082E490E00E94670038
S11309F04FE361E182E490E00E9467006BE683E4E8
S1130A000E947E00482F4F736BE682E490E00E94C0
S1130A10670088B3806888BB089590BD89B98BB19D
S1130A2082608BB988E98AB986E880BD08955D9BA8
S1130A30FECF8CB908951F920F920FB60F92112416
S1130A408F938CB1809360008F910F900FBE0F90A5
S1130A501F901895FC01808190E002C095958795C0
S1130A606A95E2F7F1E08F2781700895FC012081F7
S1130A7081E090E002C0880F991F6A95E2F7822313
S1130A8008951F93CF93DF9388B38F7788BB88B380
S1130A90806288BB66E083E390E00E942A058111AE
S1130AA0F9CF88B3806888BB10E01AC067E083E39D
S1130AB090E00E942A058111F9CF89B30E9417059D
S1130AC067E083E390E00E9436058111F9CF219617
S1130AD002C0C0E0D0E0C03481E0D80738F31F5F23
S1130AE01837B8F388B38F7D88BBDF91CF911F91FE
S1130AF00895789487E090E00E940D050E948B0091
S1130B0082B3806482BB2FEF83ED90E32150804059
S1130B109040E1F700C0000066E080E390E00E94AE
S1130B202A058823C9F32FEF8DEE92E021508040EF
S1130B309040E1F700C0000066E080E390E00E948E
S1130B402A058111F9CF2FEF8DEE92E021508040DC
S1130B509040E1F700C000000E944105DDCFF89409
S1050B60FFCFC1
S9030000FC
